{
  "contractName": "HashBranchPatientConsent",
  "abi": [
    {
      "constant": true,
      "inputs": [],
      "name": "owner",
      "outputs": [
        {
          "name": "",
          "type": "address"
        }
      ],
      "payable": false,
      "stateMutability": "view",
      "type": "function",
      "signature": "0x8da5cb5b"
    },
    {
      "inputs": [],
      "payable": false,
      "stateMutability": "nonpayable",
      "type": "constructor",
      "signature": "constructor"
    },
    {
      "anonymous": false,
      "inputs": [
        {
          "indexed": false,
          "name": "consentId",
          "type": "uint256"
        }
      ],
      "name": "LogConsentEnabled",
      "type": "event",
      "signature": "0x1cd631c568600dd6c03398fbb1296e3cca52300d44f04cbe5050719f796b4f07"
    },
    {
      "anonymous": false,
      "inputs": [
        {
          "indexed": false,
          "name": "consentId",
          "type": "uint256"
        }
      ],
      "name": "LogConsentDisabled",
      "type": "event",
      "signature": "0xd8e29fedbb2a2958d33c3f14227af010707eec471450f50045c1f11295ab431c"
    },
    {
      "constant": false,
      "inputs": [
        {
          "name": "patient",
          "type": "address"
        },
        {
          "name": "consentId",
          "type": "uint256"
        }
      ],
      "name": "enableConsent",
      "outputs": [
        {
          "name": "",
          "type": "uint256"
        }
      ],
      "payable": false,
      "stateMutability": "nonpayable",
      "type": "function",
      "signature": "0x68ce4ed1"
    },
    {
      "constant": false,
      "inputs": [
        {
          "name": "patient",
          "type": "address"
        },
        {
          "name": "consentId",
          "type": "uint256"
        }
      ],
      "name": "disableConsent",
      "outputs": [
        {
          "name": "",
          "type": "uint256"
        }
      ],
      "payable": false,
      "stateMutability": "nonpayable",
      "type": "function",
      "signature": "0x488d4b3e"
    },
    {
      "constant": true,
      "inputs": [
        {
          "name": "patient",
          "type": "address"
        },
        {
          "name": "consentId",
          "type": "uint256"
        }
      ],
      "name": "hasConsent",
      "outputs": [
        {
          "name": "",
          "type": "uint256"
        }
      ],
      "payable": false,
      "stateMutability": "view",
      "type": "function",
      "signature": "0x663334f8"
    }
  ],
  "bytecode": "0x608060405234801561001057600080fd5b5033600260006101000a81548173ffffffffffffffffffffffffffffffffffffffff021916908373ffffffffffffffffffffffffffffffffffffffff16021790555060008060006101000a81548160ff021916908360ff1602179055506104e88061007c6000396000f3fe608060405260043610610062576000357c0100000000000000000000000000000000000000000000000000000000900463ffffffff168063488d4b3e14610067578063663334f8146100d657806368ce4ed1146101455780638da5cb5b146101b4575b600080fd5b34801561007357600080fd5b506100c06004803603604081101561008a57600080fd5b81019080803573ffffffffffffffffffffffffffffffffffffffff1690602001909291908035906020019092919050505061020b565b6040518082815260200191505060405180910390f35b3480156100e257600080fd5b5061012f600480360360408110156100f957600080fd5b81019080803573ffffffffffffffffffffffffffffffffffffffff16906020019092919080359060200190929190505050610323565b6040518082815260200191505060405180910390f35b34801561015157600080fd5b5061019e6004803603604081101561016857600080fd5b81019080803573ffffffffffffffffffffffffffffffffffffffff1690602001909291908035906020019092919050505061037e565b6040518082815260200191505060405180910390f35b3480156101c057600080fd5b506101c9610496565b604051808273ffffffffffffffffffffffffffffffffffffffff1673ffffffffffffffffffffffffffffffffffffffff16815260200191505060405180910390f35b600080600160008573ffffffffffffffffffffffffffffffffffffffff1673ffffffffffffffffffffffffffffffffffffffff16815260200190815260200160002060008481526020019081526020016000208190555060008081819054906101000a900460ff168092919060010191906101000a81548160ff021916908360ff160217905550507fd8e29fedbb2a2958d33c3f14227af010707eec471450f50045c1f11295ab431c826040518082815260200191505060405180910390a1600160008473ffffffffffffffffffffffffffffffffffffffff1673ffffffffffffffffffffffffffffffffffffffff168152602001908152602001600020600083815260200190815260200160002054905092915050565b6000600160008473ffffffffffffffffffffffffffffffffffffffff1673ffffffffffffffffffffffffffffffffffffffff168152602001908152602001600020600083815260200190815260200160002054905092915050565b600060018060008573ffffffffffffffffffffffffffffffffffffffff1673ffffffffffffffffffffffffffffffffffffffff16815260200190815260200160002060008481526020019081526020016000208190555060008081819054906101000a900460ff168092919060010191906101000a81548160ff021916908360ff160217905550507f1cd631c568600dd6c03398fbb1296e3cca52300d44f04cbe5050719f796b4f07826040518082815260200191505060405180910390a1600160008473ffffffffffffffffffffffffffffffffffffffff1673ffffffffffffffffffffffffffffffffffffffff168152602001908152602001600020600083815260200190815260200160002054905092915050565b600260009054906101000a900473ffffffffffffffffffffffffffffffffffffffff168156fea165627a7a72305820b5e1133add419928e82593e717fe9f976d0551dd9ada05075483ae22fd8caaf10029",
  "source": "pragma solidity >=0.4.22 <0.6.0;\n\ncontract HashBranchPatientConsent {\n    uint8 private consentCount;\n    mapping (address => mapping( uint => uint) ) private consentIds;\n    address public owner;\n\n    event LogConsentEnabled(uint consentId);\n\n    event LogConsentDisabled(uint consentId);\n\n    constructor() public {\n        owner = msg.sender;\n        consentCount = 0;\n    }\n\n    function enableConsent(address patient, uint consentId) public returns (uint) {\n        consentIds[patient][consentId] = 1;\n        consentCount++;\n\n        emit LogConsentEnabled(consentId);\n\n        return consentIds[patient][consentId];\n    }\n\n    function disableConsent(address patient, uint consentId) public returns (uint) {\n        consentIds[patient][consentId] = 0;\n        consentCount++;\n\n        emit LogConsentDisabled(consentId);\n\n        return consentIds[patient][consentId];\n    }\n\n    function hasConsent(address patient, uint consentId) public view returns (uint) {\n        return consentIds[patient][consentId];\n    }\n}",
  "sourcePath": "/home/mjordan/projects/branchgene/blockchain/contracts/HashBranchPatientConsent.sol",
  "compiler": {
    "name": "solc",
    "version": "0.5.0+commit.1d4f565a.Emscripten.clang"
  },
  "schemaVersion": "3.0.2",
  "updatedAt": "2019-02-24T04:09:56.004Z",
  "devdoc": {
    "methods": {}
  },
  "userdoc": {
    "methods": {}
  }
}