{
  "contractName": "HashBranchPatient",
  "abi": [
    {
      "constant": true,
      "inputs": [],
      "name": "owner",
      "outputs": [
        {
          "name": "",
          "type": "address"
        }
      ],
      "payable": false,
      "stateMutability": "view",
      "type": "function"
    },
    {
      "inputs": [],
      "payable": false,
      "stateMutability": "nonpayable",
      "type": "constructor"
    },
    {
      "anonymous": false,
      "inputs": [
        {
          "indexed": false,
          "name": "consentId",
          "type": "uint256"
        }
      ],
      "name": "LogConsentEnabled",
      "type": "event"
    },
    {
      "anonymous": false,
      "inputs": [
        {
          "indexed": false,
          "name": "consentId",
          "type": "uint256"
        }
      ],
      "name": "LogConsentDisabled",
      "type": "event"
    },
    {
      "constant": false,
      "inputs": [
        {
          "name": "consentId",
          "type": "uint256"
        }
      ],
      "name": "enableConsent",
      "outputs": [
        {
          "name": "",
          "type": "uint256"
        }
      ],
      "payable": false,
      "stateMutability": "nonpayable",
      "type": "function"
    },
    {
      "constant": false,
      "inputs": [
        {
          "name": "consentId",
          "type": "uint256"
        }
      ],
      "name": "disableConsent",
      "outputs": [
        {
          "name": "",
          "type": "uint256"
        }
      ],
      "payable": false,
      "stateMutability": "nonpayable",
      "type": "function"
    },
    {
      "constant": true,
      "inputs": [
        {
          "name": "consentId",
          "type": "uint256"
        }
      ],
      "name": "hasConsent",
      "outputs": [
        {
          "name": "",
          "type": "uint256"
        }
      ],
      "payable": false,
      "stateMutability": "view",
      "type": "function"
    }
  ],
  "bytecode": "0x608060405234801561001057600080fd5b5033600260006101000a81548173ffffffffffffffffffffffffffffffffffffffff021916908373ffffffffffffffffffffffffffffffffffffffff16021790555060008060006101000a81548160ff021916908360ff1602179055506103548061007c6000396000f3fe608060405260043610610062576000357c0100000000000000000000000000000000000000000000000000000000900463ffffffff1680638da5cb5b146100675780639780f424146100be578063b59343801461010d578063be50c5541461015c575b600080fd5b34801561007357600080fd5b5061007c6101ab565b604051808273ffffffffffffffffffffffffffffffffffffffff1673ffffffffffffffffffffffffffffffffffffffff16815260200191505060405180910390f35b3480156100ca57600080fd5b506100f7600480360360208110156100e157600080fd5b81019080803590602001909291905050506101d1565b6040518082815260200191505060405180910390f35b34801561011957600080fd5b506101466004803603602081101561013057600080fd5b81019080803590602001909291905050506101ee565b6040518082815260200191505060405180910390f35b34801561016857600080fd5b506101956004803603602081101561017f57600080fd5b810190808035906020019092919050505061028b565b6040518082815260200191505060405180910390f35b600260009054906101000a900473ffffffffffffffffffffffffffffffffffffffff1681565b600060016000838152602001908152602001600020549050919050565b600060018060008481526020019081526020016000208190555060008081819054906101000a900460ff168092919060010191906101000a81548160ff021916908360ff160217905550507f1cd631c568600dd6c03398fbb1296e3cca52300d44f04cbe5050719f796b4f07826040518082815260200191505060405180910390a160016000838152602001908152602001600020549050919050565b600080600160008481526020019081526020016000208190555060008081819054906101000a900460ff168092919060010191906101000a81548160ff021916908360ff160217905550507fd8e29fedbb2a2958d33c3f14227af010707eec471450f50045c1f11295ab431c826040518082815260200191505060405180910390a16001600083815260200190815260200160002054905091905056fea165627a7a7230582014abf7b0cd8f4c34e45b809d9abcf694de4e1e016cc24220532c13b369053c230029",
  "source": "pragma solidity >=0.4.22 <0.6.0;\n\ncontract HashBranchPatient {\n    uint8 private consentCount;\n    mapping (uint => uint) private consentIds;\n    address public owner;\n\n    event LogConsentEnabled(uint consentId);\n\n    event LogConsentDisabled(uint consentId);\n\n    constructor() public {\n        owner = msg.sender;\n        consentCount = 0;\n    }\n\n    function enableConsent(uint consentId) public returns (uint) {\n        consentIds[consentId] = 1;\n        consentCount++;\n\n        emit LogConsentEnabled(consentId);\n\n        return consentIds[consentId];\n    }\n\n    function disableConsent(uint consentId) public returns (uint) {\n        consentIds[consentId] = 0;\n        consentCount++;\n\n        emit LogConsentDisabled(consentId);\n\n        return consentIds[consentId];\n    }\n\n    function hasConsent(uint consentId) public view returns (uint) {\n        return consentIds[consentId];\n    }\n}",
  "sourcePath": "/home/mjordan/projects/branchgene/blockchain/contracts/HashBranchPatientConsent.sol",
  "compiler": {
    "name": "solc",
    "version": "0.5.0+commit.1d4f565a.Emscripten.clang"
  },
  "schemaVersion": "3.0.2",
  "updatedAt": "2019-02-24T03:53:36.320Z",
  "devdoc": {
    "methods": {}
  },
  "userdoc": {
    "methods": {}
  }
}